S01600006D696E615F6368616C6C656E67652E7372656367
S11300000C942A000C9447000C9447000C94D900DB
S11300100C9447000C9447000C9447000C94470040
S11300200C9447000C9447000C9447000C94470030
S11300300C9414010C9423010C9447000C94470075
S11300400C9447000C9447000C9447000C94470010
S11300500C94470011241FBECFE5D8E0DEBFCDBF0E
S113006010E0A0E6B0E0E6EAF2E002C005900D92EE
S1130070AA36B107D9F720E0AAE6B0E001C01D9284
S1130080A139B207E1F70E9499000C9451010C9434
S1130090000080916B00813081F584E10E947E0034
S11300A0882329F08AE00E947E00811126C084E121
S11300B00E947E00813089F480916A0090E00A9663
S11300C0853691052CF480916A00865F80936A00DE
S11300D080916A000E94020108958AE00E947E00D5
S11300E0813059F480916A0090E00A9712F41092DA
S11300F06A0080916A000E9402010895CF93C82F7C
S11301000E94AA00813089F42FEF80E792E0215009
S113011080409040E1F700C000008C2F0E94AA00AC
S113012091E0813019F090E001C090E0892FCF91E7
S113013008950E9449000E944900FDCF883110F0C3
S113014087510895803110F08F500895883008F059
S113015087500895CF93803218F5E82FF0E0E459E2
S1130160FF4F9081911120C01DC0C82F0E949E0096
S1130170C695C695C695EC2FF0E0EE0FFF1FE05A2A
S1130180FF4F0190F081E02D908121E030E002C02A
S1130190220F331F8A95E2F7892F8223808307C0B9
S11301A086E005C081E003C09130F9F284E0CF918C
S11301B008951F920F920FB60F9211242F933F931D
S11301C04F935F936F937F938F939F93AF93BF935B
S11301D0EF93FF93E0918C00F0918D00309709F03C
S11301E00995FF91EF91BF91AF919F918F917F916D
S11301F06F915F914F913F912F910F900FBE0F9090
S11302001F90189590918E00913029F410926800F7
S11302108FB980E00895911105C08FB9779BFECF07
S113022080E008958CEF08951F920F920FB60F92FD
S113023011248F9381E0809368008F910F900FBEFB
S11302400F901F9018951F920F920FB60F921124C2
S11302502F933F934F935F936F937F938F939F93CA
S1130260AF93BF93EF93FF9380918F009091900091
S1130270892B31F0E0918F00F09190008CB10995B9
S1130280FF91EF91BF91AF919F918F917F916F916A
S11302905F914F913F912F910F900FBE0F901F9040
S10902A01895F894FFCF4D
S10D02A63900360033003000010077
S9030000FC
